:100000000C945E000C9486000C9486000C94860080
:100010000C9486000C9486000C9486000C94860048
:100020000C9486000C9486000C9486000C949A071D
:100030000C9486000C9486000C9486000C94860028
:100040000C949A020C9486000C9459060C949C060D
:100050000C9486000C9486000C9486000C94860008
:100060000C9486000C94860000000007000201003A
:100070000003040600000000000000000102040864
:100080001020408001020408102001020408102002
:10009000040404040404040402020202020203032E
:1000A0000303030300000000250028002B000000CC
:1000B0000000240027002A004E015F0711241FBE04
:1000C000CFEFD8E0DEBFCDBF11E0A0E0B1E0E4E3C8
:1000D000F4E102C005900D92A832B107D9F722E0F1
:1000E000A8E2B1E001C01D92AF32B207E1F710E023
:1000F000CEE5D0E004C02197FE010E94030ACC3572
:10010000D107C9F70E9471050C9498090C9400005E
:1001100020912C0130912D012130310591F01CF4FA
:10012000232B49F076C022303105A1F02330310570
:1001300009F444C06EC0853509F06BC081E090E0E1
:1001400004C080933D0182E090E090932D01809364
:100150002C015FC020912E0130912F0140913D0173
:10016000042E000C550B415051092417350794F407
:10017000F901E45CFE4F8283E0912A01F0912B01AA
:10018000682F082E000C770B6E277F2770932B01AA
:1001900060932A012417350751F4F901E45CFE4FFE
:1001A000828383E090E090932D0180932C012F5F58
:1001B0003F4F30932F0120932E012BC020913D0102
:1001C000022E000C330B40912E0150912F0142174B
:1001D0005307A1F510922F0110922E0110922D01BC
:1001E00010922C011092290110922801809346014F
:1001F000082E000C990B20912A0130912B011092AE
:100200002B0110922A0128173907C1F481E090E0F0
:10021000089580912801909129019C012F5F3F4F03
:10022000309329012093280144975CF010922D010E
:1002300010922C0110922901109228018FEF9FEF4C
:10024000089580E090E00895CF93DF93CEE3D1E06E
:100250006991062E000C770B4AE050E08FE591E0A3
:100260000E946A0560E071E08FE591E00E949B04C6
:1002700081E0C634D80761F78FE591E0DF91CF9137
:100280000C94A40440E855E260E070E08FE591E052
:100290000E94D70660E08BE00C94F203CF93DF93CB
:1002A000C7E4D1E0CE010E945B08239681E0C63509
:1002B000D807C1F785E580933C0110923D01DF919D
:1002C000CF9108959F92AF92BF92CF92DF92EF921B
:1002D000FF920F931F93CF93DF938FE591E00E94DE
:1002E000BF05892B89F464E670E080E090E0DF913F
:1002F000CF911F910F91FF90EF90DF90CF90BF9023
:10030000AF909F900C94090364E071E08FE591E059
:100310000E94B804C7E0D0ED82E191E045E0942E60
:10032000980E8FE591E00E94BF0518161906DCF6BD
:100330008FE591E00E94EB050E948800019709F08B
:100340008BC060913E01062E000C770B880B990B39
:100350001F921F92CF93DF9328EEA22E23E0B22E9E
:10036000C12CD12C14E6E12EF12C00E010E02CE998
:100370003FEF4FEF5FEF0E947E0570933101609376
:10038000300160913F01062E000C770B880B990B12
:100390001F921F92CF93DF932CE93FEF4FEF5FEF58
:1003A0000E947E0570933301609332016091400199
:1003B000062E000C770B880B990B1F921F92CF9380
:1003C000DF932CE93FEF4FEF5FEF0E947E057093C4
:1003D00035016093340160914101062E000C770BCA
:1003E000880B990B1F921F92CF93DF932CE93FEF5D
:1003F0004FEF5FEF0E947E057093370160933601E7
:1004000060914201062E000C770B880B990B1F920E
:100410001F92CF93DF932CE93FEF4FEF5FEF0E94E6
:100420007E05709339016093380180914301809378
:100430003A0181E02DB73EB72C5E3F4F0FB6F894DE
:100440003EBF0FBE2DBF90914401911101C080E0CD
:1004500080933B010E94240180913B0181114BC09C
:1004600087E4E82E81E0F82E02E111E0F8016191C5
:100470008F0170E020ED37E048EE53E0C7010E94A5
:100480007708F3E0EF0EF11C9012F0CF609130018D
:100490007091310187E491E00E943C096091320142
:1004A000709133018AE491E00E943C09609134012B
:1004B000709135018DE491E00E943C096091360114
:1004C0007091370180E591E00E943C09609138010C
:1004D0007091390183E591E00E943C0960913A01F5
:1004E00070E08BE00E946A0380913A0181110FC095
:1004F00060E070E01BC007E411E0C8010E94F90849
:100500000D5F1F4F21E006351207B9F7BFCF8130CD
:1005100019F468EE73E00AC0823019F46CED75E0EE
:1005200005C0833009F0FDCE60ED77E08BE00E94DE
:100530006A03F7CE1F920F920FB60F9211242F93DA
:100540003F938F939F93AF93BF9380915701909167
:100550005801A0915901B0915A013091560123E000
:10056000230F2D3720F40196A11DB11D05C026E8EB
:10057000230F0296A11DB11D2093560180935701B0
:1005800090935801A0935901B0935A0180915B0157
:1005900090915C01A0915D01B0915E010196A11D59
:1005A000B11D80935B0190935C01A0935D01B093BA
:1005B0005E01BF91AF919F918F913F912F910F90CD
:1005C0000FBE0F901F9018953FB7F89480915B0174
:1005D00090915C01A0915D01B0915E0126B5A89B50
:1005E00005C02F3F19F00196A11DB11D3FBFBA2FC5
:1005F000A92F982F8827820F911DA11DB11DBC0125
:10060000CD0142E0660F771F881F991F4A95D1F7E9
:100610000895CF92DF92EF92FF92CF93DF936B0119
:100620007C010E94E402EB01C114D104E104F10455
:1006300079F00E94E4026C1B7D0B683E7340A0F3CE
:1006400081E0C81AD108E108F108C851DC4FECCFAD
:10065000DF91CF91FF90EF90DF90CF900895789445
:1006600084B5826084BD84B5816084BD85B58260B7
:1006700085BD85B5816085BDEEE6F0E08081816055
:100680008083E1E8F0E01082808182608083808155
:1006900081608083E0E8F0E0808181608083E1EB2D
:1006A000F0E0808184608083E0EBF0E08081816015
:1006B0008083EAE7F0E080818460808380818260CB
:1006C00080838081816080838081806880831092B4
:1006D000C10008951F93CF93DF93182FEB0161E0C2
:1006E0000E94F203209711F460E004C0CF3FD105CF
:1006F00039F461E0812FDF91CF911F910C942E048A
:10070000E12FF0E0E859FF4FE491E330F9F048F4CD
:10071000E130B9F0E230A1F584B5806284BDC8BD96
:1007200034C0E630E9F0E73019F1E43049F5809162
:100730008000806280938000D0938B00C0938A00F9
:1007400024C084B5806884BDC7BD1FC0809180006F
:10075000806880938000D0938900C093880015C082
:100760008091B00080688093B000C093B3000DC04A
:100770008091B00080628093B000C093B40005C047
:10078000C038D1050CF0B5CFAFCFDF91CF911F911D
:100790000895833081F028F4813099F08230A1F0FF
:1007A00008958630A9F08730B9F08430D1F4809173
:1007B00080008F7D03C0809180008F7780938000C0
:1007C000089584B58F7702C084B58F7D84BD089568
:1007D0008091B0008F7703C08091B0008F7D8093AF
:1007E000B0000895CF93DF9390E0FC01E458FF4FF1
:1007F0002491FC01E057FF4F8491882361F190E040
:10080000880F991FFC01E255FF4FC591D491FC015F
:10081000EC55FF4FA591B491611109C09FB7F894B1
:100820008881209582238883EC912E230BC062302F
:1008300061F49FB7F8943881822F80958323888351
:10084000EC912E2B2C939FBF06C08FB7F894E881B4
:100850002E2B28838FBFDF91CF9108951F93CF93C5
:10086000DF93282F30E0F901E859FF4F8491F90117
:10087000E458FF4FD491F901E057FF4FC491CC23C6
:10088000C9F0162F81110E94C903EC2FF0E0EE0F82
:10089000FF1FEC55FF4FA591B4918FB7F89411113C
:1008A00005C09C91ED2FE095E92302C0EC91ED2B62
:1008B000EC938FBFDF91CF911F910895CF92DF927C
:1008C000EF92FF920F931F93CF93DF936C01EB0195
:1008D0007B01E40EF51E00E010E0CE15DF0561F0AF
:1008E0006991D601ED91FC910190F081E02DC60156
:1008F0000995080F191FF1CFC801DF91CF911F9102
:100900000F91FF90EF90DF90CF90089561157105E2
:1009100079F0FB0101900020E9F73197AF01461B08
:10092000570BDC01ED91FC910280F381E02D0994DD
:1009300080E090E008950C948604DC01ED91FC9138
:100940000190F081E02D09940F931F93CF93DF93D3
:10095000EC016DE00E949D048C016AE0CE010E94D2
:100960009D04800F911FDF91CF911F910F910895EA
:100970000F931F93CF93DF93EC010E9486048C01A9
:10098000CE010E94A404800F911FDF91CF911F918F
:100990000F9108958F929F92AF92BF92CF92DF9264
:1009A000EF92FF920F931F93CF93DF93CDB7DEB7F4
:1009B000A1970FB6F894DEBF0FBECDBF6C01142F08
:1009C000E52FCB01022F19A2223008F40AE07E01A4
:1009D00021E2E20EF11C802E912CA12CB12C612F72
:1009E0007E2FA50194010E94B709029F10191124BE
:1009F00081E0E81AF1081A3014F4105D01C0195CA6
:100A0000F7011083122FE32FCA01232B242B252B50
:100A100031F7B701C6010E948604A1960FB6F8947B
:100A2000DEBF0FBECDBFDF91CF911F910F91FF9021
:100A3000EF90DF90CF90BF90AF909F908F900895F0
:100A4000CF92DF92EF92FF920F931F93CF93DF939A
:100A5000EC016A017B012115310579F4E881F98106
:100A60000190F081E02D642FDF91CF911F910F91C4
:100A7000FF90EF90DF90CF9009942A303105E9F490
:100A800077FF1AC06DE20E949D048C014427552710
:100A9000BA014C195D096E097F092AE0CE010E9456
:100AA000CA04800F911FDF91CF911F910F91FF908A
:100AB000EF90DF90CF9008952AE0B701A601CE0114
:100AC000DF91CF911F910F91FF90EF90DF90CF902A
:100AD0000C94CA049A01AB01770F660B770B0C9448
:100AE00020050E942F030E944201C3E9D6E00E9424
:100AF00062012097E1F30E949306F9CF4F925F9233
:100B00006F927F92AF92BF92CF92DF92EF92FF925D
:100B10000F931F93CF93DF93CDB7DEB729013A012F
:100B20009B01AC01241935094609570989899A891D
:100B3000AB89BC89BC01CD016A197B098C099D096F
:100B40000E949B09A80197012419350946095709F4
:100B50000E94D909CA01B9016A0D7B1D8C1D9D1D1A
:100B6000DF91CF911F910F91FF90EF90DF90CF9089
:100B7000BF90AF907F906F905F904F900895FC0171
:100B800024853585F901E05CFF4F808191813296A3
:100B900020813181821B930B8F7399270895DC018B
:100BA0001C96ED91FC911D97DF01A05CBF4F2D912C
:100BB0003C91119712968D919C91119728173907A6
:100BC00039F08D919C91E80FF91F808190E0089594
:100BD0008FEF9FEF0895FC01A485B585FD01E05CD2
:100BE000FF4F20813181329680819181281739070A
:100BF00079F080819181A80FB91F8C91208131817A
:100C00002F5F3F4F2F7333273183208390E0089568
:100C10008FEF9FEF0895FC0181A1882329F0A4891B
:100C2000B5898C9186FFFBCF11A208950F931F9376
:100C3000CF93DF93FC01A685B7858D01005C1F4F24
:100C4000E8018881998101968F739927AD014E5BE8
:100C50005F4FEA012881398182179307D1F3E801B8
:100C600028813981A20FB31F6C93A685B785A05C3C
:100C7000BF4F11969C938E93A689B7892C9181E0E2
:100C800090E0078C02C0880F991F0A94E2F7822B2C
:100C90008C9381E081A30488F589E02D80818064B4
:100CA000808381E090E0DF91CF911F910F910895B3
:100CB00008951F920F920FB60F9211242F934F9306
:100CC0005F938F939F93EF93FF938091C00082FD7A
:100CD0001CC02091C60080910502909106020196E9
:100CE0008F73992740910702509108028417950746
:100CF00071F0E0910502F0910602EB53FE4F208364
:100D0000909306028093050202C08091C600FF9175
:100D1000EF919F918F915F914F912F910F900FBE07
:100D20000F901F9018958FE591E00E94BF05892BC9
:100D300011F00C94580608951F920F920FB60F925F
:100D400011242F933F938F939F93EF93FF932091C1
:100D5000C1013091C2018091C3019091C401281753
:100D6000390731F48091C1008F7D8093C10014C098
:100D7000E091C301F091C401EF57FE4F20818091B3
:100D8000C3019091C40101968F7399279093C40178
:100D90008093C3012093C600FF91EF919F918F91A3
:100DA0003F912F910F900FBE0F901F901895CF92EB
:100DB000DF92EF92FF920F931F93CF93DF93EC019B
:100DC0006A017B014115514E6105710509F1EC89FC
:100DD000FD8981E090E008A002C0880F991F0A9465
:100DE000E2F7808360E079E08DE390E0A70196016F
:100DF0000E94B70989019A0101501109210931099D
:100E00003695279517950795980101151041A8F07B
:100E1000EC89FD89108260E874E88EE190E0A7011A
:100E200096010E94B709DA01C9010197A109B10928
:100E3000B695A795979587959C01E889F9893083A0
:100E4000EA89FB89208319A2EE89FF89408181E02C
:100E500090E09C010C8C02C0220F331F0A94E2F731
:100E6000242B2083EE89FF8940819C010D8C02C0D8
:100E7000220F331F0A94E2F7242B2083EE89FF8987
:100E800040819C010E8C02C0220F331F0A94E2F7AE
:100E9000242B2083EE89FF8920810F8C02C0880FCC
:100EA000991F0A94E2F7809582238083DF91CF9186
:100EB0001F910F91FF90EF90DF90CF900895EFE595
:100EC000F1E01382128288EE93E0A0E0B0E0848328
:100ED0009583A683B7838BE191E09183808385EC32
:100EE00091E09587848781E891E09787868785ECF4
:100EF00090E0918B808B84EC90E0938B828B80ECE4
:100F000090E0958B848B81EC90E0978B868B82ECC4
:100F100090E0918F808F86EC90E0938F828F84E0B9
:100F2000848F83E0858F87E0868F85E0878F81E0DF
:100F300080A308951F920F920FB60F9211242F9342
:100F40003F934F935F936F937F938F939F93AF9351
:100F5000BF93EF93FF9380910A0287FF05C0109221
:100F60008500109284001BC020910A02022E000C02
:100F7000330B8091090290E02817390784F480919F
:100F80000A02082E000C990BFC01EE0FFF1F8E0FBA
:100F90009F1FFC01E55FFD4F808186FD15C080919C
:100FA0000A028F5F80930A0220910A02022E000C2F
:100FB000330B8091090290E028173907C4F480911F
:100FC0000A028C3064F113C080910A02082E000CD2
:100FD000990BFC01EE0FFF1F8E0F9F1FFC01E55FB9
:100FE000FD4F808160E08F730E942E04D8CF8091E6
:100FF000840090918500049680349C4918F480E424
:101000009CE905C08091840090918500049690939E
:101010008900809388008FEF80930A023BC0209163
:1010200084003091850080910A02082E000C990BF3
:10103000FC01EE0FFF1F8E0F9F1FFC01E55FFD4FB0
:1010400081819281820F931F909389008093880001
:1010500080910A02082E000C990BFC01EE0FFF1F75
:101060008E0F9F1FFC01E55FFD4F808186FF12C040
:1010700080910A02082E000C990BFC01EE0FFF1F55
:101080008E0F9F1FFC01E55FFD4F808161E08F7334
:101090000E942E04FF91EF91BF91AF919F918F918C
:1010A0007F916F915F914F913F912F910F900FBE64
:1010B0000F901F901895FC01909109029C30A0F4AC
:1010C00081E0890F809309029083892F90E0FC01D1
:1010D000EE0FFF1F8E0F9F1FFC01E55FFD4F88EB9A
:1010E0009BE09283818308958FEF80830895DF9240
:1010F000EF92FF920F931F93CF93DF93EC01D62EC5
:101100007A01890188818C3008F06AC061E08D2DF8
:101110000E94F2038881E82FF0E09F01220F331F25
:10112000E20FF31FE55FFD4F9D2D9F732081207C13
:10113000D22ED92AD08260E272E0AB014E195F094B
:1011400057FF02C04D5F5F4F5595479555954795A1
:10115000498340E659E09A01201B310B37FF02C05A
:101160002D5F3F4F35952795359527952A836CE060
:101170000E94AB099CE0899FB001112440E050E03F
:101180009A01260F371FF901EE0FFF1F2E0F3F1F89
:10119000F901E55FFD4F908196FD16C04F5F5F4FEF
:1011A0004C30510569F781110FC01092800082E028
:1011B000809381001092850010928400B19A8091F2
:1011C0006F00826080936F00E881F0E0CF01880FAC
:1011D000991FE80FF91FE55FFD4F808180648083D0
:1011E0008881DF91CF911F910F91FF90EF90DF9059
:1011F0000895DC01EC91F0E0CF01880F991FE80F12
:10120000F91FE55FFD4F80818F7B80830895FC018E
:1012100090819C3080F5818128E830E0281B3109DD
:1012200087FD3395220F331F220F331F6217730779
:101230007CF0828128E532E0281B310987FD339557
:10124000220F331F220F331F621773070CF49B0109
:101250004FB7F894892F90E0FC01EE0FFF1F8E0F1F
:101260009F1FFC01E55FFD4F22503109220F331F04
:10127000328321834FBF0895AF92BF92CF92DF9206
:10128000EF92FF920F931F93CF93DF93EC016032A5
:1012900082E078070CF03FC077FD06C0653B710522
:1012A0002CF064EB70E002C060E070E0898128E817
:1012B00030E05901A81AB10887FDB394AA0CBB1CF1
:1012C000AA0CBB1C0B2C000CCC08DD08072E000C54
:1012D000880B990B2A8108E512E0021B110927FDF2
:1012E0001395000F111F000F111F012E000C220B70
:1012F000330B3F932F931F930F9314EBE12EF12C9D
:1013000000E010E020E030E0A9010E947E050F908F
:101310000F900F900F90CE01DF91CF911F910F9101
:10132000FF90EF90DF90CF90BF90AF900C940709A3
:10133000F8940C94180ADB018F939F930E94F8098C
:10134000BF91AF91A29F800D911DA39F900DB29F61
:10135000900D11240895991B79E004C0991F9617E8
:1013600008F0961B881F7A95C9F780950895A1E229
:101370001A2EAA1BBB1BFD010DC0AA1FBB1FEE1F0F
:10138000FF1FA217B307E407F50720F0A21BB30B5A
:10139000E40BF50B661F771F881F991F1A9469F7D6
:1013A00060957095809590959B01AC01BD01CF0132
:1013B0000895052E97FB1EF400940E94F00957FD36
:1013C00007D00E94B70907FC03D04EF40C94F00933
:1013D00050954095309521953F4F4F4F5F4F089561
:1013E00090958095709561957F4F8F4F9F4F089591
:1013F0000E94090AA59F900DB49F900DA49F800D97
:10140000911D11240895EE0FFF1F0590F491E02D1A
:101410000994A29FB001B39FC001A39F700D811DCD
:101420001124911DB29F700D811D1124911D0895ED
:04143000F894FFCF5E
:10143400207C2000696E636F6D6D696E67206D732B
:101444006700030506090A0000000016065E04BFD3
:0814540005EB05CF050B0600B6
:00000001FF
