:100000000C945D000C9485000C9485000C94850084
:100010000C9485000C9485000C9485000C9485004C
:100020000C9485000C9485000C9485000C94FC02C3
:100030000C9485000C9485000C9485000C9485002C
:100040000C9432040C9485000C94F8030C94BD03BA
:100050000C9485000C9485000C9485000C9485000C
:100060000C9485000C9485000000000024002700FB
:100070002A0000000000250028002B0004040404CE
:100080000404040402020202020203030303030342
:10009000010204081020408001020408102001021F
:1000A00004081020000000070002010000030406FD
:1000B00000000000000000007C0411241FBECFEFF0
:1000C000D8E0DEBFCDBF11E0A0E0B1E0EAEAF1E1A7
:1000D00002C005900D92A832B107D9F722E0A8E23C
:1000E000B1E001C01D92AF32B207E1F710E0CDE5FB
:1000F000D0E004C02197FE010E94CD08CC35D10785
:10010000C9F70E94F7040C945B080C940000CF928E
:10011000DF92EF92FF92CF93DF93EC01603282E0A7
:1001200078070CF03DC077FD06C0653B71052CF0EB
:1001300064EB70E002C060E070E0898128E830E0A4
:100140006901C81AD10887FDD394CC0CDD1CCC0CF6
:10015000DD1C0D2C000CEE08FF088A8128E532E03A
:10016000281B310987FD3395220F331F220F331FC0
:10017000C901330FAA0BBB0B9C01AD012C193D0922
:100180004E095F09DB010E94880824EB30E040E063
:1001900050E00E945E08C20ED31EE41EF51EB6019A
:1001A00038813C3080F5298188E890E0821B9109F4
:1001B00027FD9395880F991F880F991F6817790756
:1001C00084F08A8148E552E0481B510987FD539528
:1001D000440F551F440F551FCB01461757070CF40A
:1001E000CA014FB7F894232F30E0F901EE0FFF1F3B
:1001F0002E0F3F1FF901E051FE4F0297880F991F04
:10020000928381834FBFDF91CF91FF90EF90DF907A
:10021000CF9008950F931F93CF93DF93FC01A68592
:10022000B7858D01005C1F4FE80188819981019697
:100230008F739927AD014E5B5F4FEA0128813981A9
:1002400028173907D1F3E80128813981A20FB31F9C
:100250006C93A685B785A05CBF4F11969C938E9337
:10026000A689B7892C9181E090E0078C02C0880FA5
:10027000991F0A94E2F7822B8C9381E081A3048872
:10028000F589E02D80818064808381E090E0DF91BA
:10029000CF911F910F910895CF93DF936DE08EEC76
:1002A00091E00E940A01EC016AE08EEC91E00E946C
:1002B0000A018C0F9D1FDF91CF910895FC0181A150
:1002C000882329F0A489B5898C9186FFFBCF11A2E0
:1002D0000895FC01A485B585FD01E05CFF4F2081F8
:1002E00031813296808191812817390779F0808198
:1002F0009181A80FB91F8C91208131812F5F3F4FD1
:100300002F7333273183208390E008958FEF9FEF81
:100310000895DC011C96ED91FC911D97DF01A05C16
:10032000BF4F2D913C91119712968D919C911197F1
:100330002817390739F08D919C91E80FF91F8081BA
:1003400090E008958FEF9FEF0895FC012485358597
:10035000F901E05CFF4F80819181329620813181EB
:10036000821B930B8F73992708958EEC91E00C9468
:10037000A5010895CF92DF92EF92FF920F931F9302
:10038000CF93DF936C01EB017B01E40EF51E00E0DF
:1003900010E0CE15DF0561F06991D601ED91FC9179
:1003A0000190F081E02DC6010995080F191FF1CFCA
:1003B000C801DF91CF911F910F91FF90EF90DF90D7
:1003C000CF90089590E0FC01EC55FF4F2491FC0183
:1003D000E057FF4F3491FC01E458FF4FE491EE23C6
:1003E00009F43CC0222339F1233091F038F4213054
:1003F000A9F0223001F584B58F7D12C0263091F02E
:100400002730A1F02430B9F4809180008F7D03C0A3
:10041000809180008F77809380000DC084B58F77A6
:1004200084BD09C08091B0008F7703C08091B00077
:100430008F7D8093B000F0E0EE0FFF1FEE58FF4F6E
:10044000A591B4919FB7F894611104C08C91309537
:10045000382302C0EC913E2B3C939FBF0895CF936D
:10046000DF9390E0FC01E057FF4F2491FC01E4583A
:10047000FF4F8491882361F190E0880F991FFC0160
:10048000E859FF4FC591D491FC01EE58FF4FA5915B
:10049000B491611109C09FB7F89488812095822397
:1004A0008883EC912E230BC0623061F49FB7F894DF
:1004B0008881322F309583238883EC912E2B2C93C7
:1004C0009FBF06C08FB7F894E8812E2B28838FBF7B
:1004D000DF91CF910895CF93DF93EC0161E08BE042
:1004E0000E942F02209711F460E004C0CF3FD10595
:1004F00031F461E08BE0DF91CF910C94E201EFEAFF
:10050000F0E0E491E330F9F048F4E130B9F0E230A2
:10051000A1F584B5806284BDC8BD34C0E630E9F081
:10052000E73019F1E43049F58091800080628093D2
:100530008000D0938B00C0938A0024C084B580686B
:1005400084BDC7BD1FC080918000806880938000FB
:10055000D0938900C093880015C08091B000806856
:100560008093B000C093B3000DC08091B000806252
:100570008093B000C093B40005C0C038D1050CF022
:10058000B8CFB2CFDF91CF9108953FB7F894809163
:100590002D0190912E01A0912F01B091300126B52F
:1005A000A89B05C02F3F19F00196A11DB11D3FBFAB
:1005B000BA2FA92F982F8827820F911DA11DB11D39
:1005C000BC01CD0142E0660F771F881F991F4A9535
:1005D000D1F70895009769F0FC0101900020E9F738
:1005E0003197AF01481B590BBC018EEC91E00C9484
:1005F000BA0180E090E008951F920F920FB60F921B
:1006000011242F933F934F935F936F937F938F9317
:100610009F93AF93BF93EF93FF938091450187FF23
:1006200005C010928500109284001BC020914501E6
:10063000022E000C330B8091140290E0281739072A
:1006400084F480914501082E000C990BFC01EE0FFB
:10065000FF1F8E0F9F1FFC01E051FE4F808186FD22
:1006600015C0809145018F5F809345012091450120
:10067000022E000C330B8091140290E028173907EA
:10068000C4F4809145018C3064F113C08091450120
:10069000082E000C990BFC01EE0FFF1F8E0F9F1F01
:1006A000FC01E051FE4F808160E08F730E94E20107
:1006B000D8CF8091840090918500049680349C4925
:1006C00018F480E49CE905C0809184009091850035
:1006D000049690938900809388008FEF8093450162
:1006E0003BC0209184003091850080914501082E07
:1006F000000C990BFC01EE0FFF1F8E0F9F1FFC01DA
:10070000E051FE4F81819281820F931F9093890067
:100710008093880080914501082E000C990BFC0104
:10072000EE0FFF1F8E0F9F1FFC01E051FE4F8081D7
:1007300086FF12C080914501082E000C990BFC0128
:10074000EE0FFF1F8E0F9F1FFC01E051FE4F8081B7
:1007500061E08F730E94E201FF91EF91BF91AF9131
:100760009F918F917F916F915F914F913F912F91C9
:100770000F900FBE0F901F9018951F920F920FB6FB
:100780000F9211242F933F938F939F93EF93FF9397
:100790002091860130918701809188019091890193
:1007A0002817390731F48091C1008F7D8093C100F3
:1007B00014C0E0918801F0918901EA5BFE4F20812D
:1007C000809188019091890101968F739927909368
:1007D0008901809388012093C600FF91EF919F913A
:1007E0008F913F912F910F900FBE0F901F901895F2
:1007F0001F920F920FB60F9211242F934F935F9376
:100800008F939F93EF93FF938091C00082FD1CC054
:100810002091C6008091CA019091CB014091CC01FA
:100820005091CD0101968F7399274817590771F0A0
:10083000E091CA01F091CB01E657FE4F20839093DF
:10084000CB018093CA0102C08091C600FF91EF9155
:100850009F918F915F914F912F910F900FBE0F90AD
:100860001F9018951F920F920FB60F9211242F937D
:100870003F938F939F93AF93BF9380912901909162
:100880002A01A0912B01B0912C013091280123E085
:10089000230F2D3720F40196A11DB11D05C026E8B8
:1008A000230F0296A11DB11D2093280180932901D9
:1008B00090932A01A0932B01B0932C0180912D01DC
:1008C00090912E01A0912F01B09130010196A11DB0
:1008D000B11D80932D0190932E01A0932F01B09311
:1008E0003001BF91AF919F918F913F912F910F90C8
:1008F0000FBE0F901F9018951092D1011092D00149
:1009000088EE93E0A0E0B0E08093D2019093D30111
:10091000A093D401B093D50189E091E09093CF01E9
:100920008093CE018AE891E09093DB018093DA0115
:1009300086E491E09093DD018093DC0185EC90E00A
:100940009093DF018093DE0184EC90E09093E101CD
:100950008093E00180EC90E09093E3018093E201CA
:1009600081EC90E09093E5018093E40182EC90E0CB
:100970009093E7018093E60186EC90E09093E90183
:100980008093E80184E08093EA0183E08093EB01A7
:1009900087E08093EC0185E08093ED0181E0809316
:1009A000EE0180911402A0E2B2E09FEF48EB5BE021
:1009B0008C3078F48C93282F30E0F901EE0FFF1F74
:1009C0002E0F3F1FF901E051FE4F528341838F5F8D
:1009D00001C09C93139622E0AF32B20749F780938F
:1009E000140285E580931502109216020895CF93A4
:1009F000DF93CDB7DEB7A4970FB6F894DEBF0FBE76
:100A0000CDBF789484B5826084BD84B5816084BD97
:100A100085B5826085BD85B5816085BD80916E009C
:100A2000816080936E0010928100809181008260CD
:100A3000809381008091810081608093810080910A
:100A400080008160809380008091B10084608093F9
:100A5000B1008091B00081608093B00080917A00F5
:100A6000846080937A0080917A00826080937A001B
:100A700080917A00816080937A0080917A0080680A
:100A800080937A001092C100E091E201F091E301BD
:100A900081E090E09C010090EE0102C0220F331F24
:100AA0000A94E2F72083E091DE01F091DF011082E9
:100AB000E091E001F091E1012FEC20831092EF0131
:100AC000E091E401F091E50140819C010090EA0190
:100AD00002C0220F331F0A94E2F7242B2083E091F7
:100AE000E401F091E50140819C010090EB0102C01E
:100AF000220F331F0A94E2F7242B2083E091E401B4
:100B0000F091E50140819C010090EC0102C0220FB0
:100B1000331F0A94E2F7242B2083E091E401F09143
:100B2000E50120810090ED0102C0880F991F0A9411
:100B3000E2F780958223808360E08BE00E942F02A1
:100B400048ECC42ED12CE12CF12C5AE0452E512C2E
:100B5000612C712C6FE2262E62E0362E8EEC91E035
:100B60000E94A501892B09F488C285E191E00E94C9
:100B7000EA020E944C018EEC91E00E94A501181639
:100B800019060CF07AC28EEC91E00E946901209166
:100B900037013091380121303105B1F01CF4232B9D
:100BA00049F025C122303105C1F02330310509F467
:100BB00048C01DC1853509F01AC121E030E03093ED
:100BC00038012093370113C18093160282E090E030
:100BD00090933801809337010AC140911602042E88
:100BE000000C550B415051092091350130913601CF
:100BF0002417350794F4F901EB5EFD4F8283082E2C
:100C0000000C990B409133015091340184279527B2
:100C100090933401809333010DC04217530751F470
:100C2000F901EB5EFD4F8283A3E0B0E0B0933801A1
:100C3000A09337012F5F3F4F30933601209335014A
:100C4000D6C020911602022E000C330B40913501C4
:100C5000509136012417350709F04AC11092360128
:100C60001092350110923801109237011092320122
:100C70001092310180931F02082E000C990B2091D5
:100C800033013091340110923401109233018217F4
:100C9000930709F02DC120911702822F220F990B83
:100CA000AA0BBB0B9C01AD012C593F4F4F4F5F4F1F
:100CB000A8EEB3E00E947D08A70196010E945E089D
:100CC000DA01C90188519C4FAF4FBF4F90933A0151
:100CD0008093390120911802822F220F990BAA0BC1
:100CE000BB0B9C01AD012C593F4F4F4F5F4FA8EEFE
:100CF000B3E00E947D08A70196010E945E08DA0118
:100D0000C90188519C4FAF4FBF4F90933C018093D6
:100D10003B0120911902822F220F990BAA0BBB0BCA
:100D20009C01AD012C593F4F4F4F5F4FA8EEB3E0F0
:100D30000E947D08A70196010E945E08DA01C901A0
:100D400088519C4FAF4FBF4F90933E0180933D0120
:100D500020911A02822F220F990BAA0BBB0B9C0128
:100D6000AD012C593F4F4F4F5F4FA8EEB3E00E94AB
:100D70007D08A70196010E945E08DA01C901885129
:100D80009C4FAF4FBF4F9093400180933F01209104
:100D90001B02822F220F990BAA0BBB0B9C01AD01EA
:100DA0002C593F4F4F4F5F4FA8EEB3E00E947D0894
:100DB000A70196010E945E08DA01C90188519C4F83
:100DC000AF4FBF4F909342018093410180911C022D
:100DD0008093430181E090911D02911101C080E058
:100DE00080934401E7E1F2E0FBA3EAA317C08091FE
:100DF0003101909132019C012F5F3F4F30933201BE
:100E00002093310144970CF473C010923801109272
:100E1000370110923201109231016AC0AAA1BBA120
:100E20008D91BBA3AAA3882E880F9908AA08BB0896
:100E3000B7FE2CC06DE28EEC91E00E940A01B094E6
:100E4000A09490948094811C911CA11CB11C19A2A7
:100E50008E010F5D1F4FC501B401A30192010E94D5
:100E60009008882DBAE02B9F801911240150110998
:100E70008A3014F4805D01C0895CF80180834901E7
:100E80005A01232B242B252B31F721C08CA2792D3D
:100E9000C50119A28E010F5D1F4F6CA1A301920124
:100EA0000E9490088CA1FAE02F9F80191124015014
:100EB00011098A3014F4805D01C0895CD8018C93DB
:100EC0002CA3732FCA01232B242B252B31F7C80108
:100ED0000E94EA0283E291E00E94EA02EFE1F2E07E
:100EE0002AA13BA1E217F30709F098CF0E944C0119
:100EF0008091440181119CC000E212E020E0A22E0A
:100F000021E0B22E34E6832ED8018C918C3008F08B
:100F100057C0F501908061E0892D0E942F02D80111
:100F20008C91E82FF0E09F01220F331FE20FF31F97
:100F3000E051FE4F992D9F732081207C922E992A9B
:100F40009082EEE81196EC93119712968C926CE0D9
:100F50000E94C108FCE08F9FB001112440E050E0E6
:100F60009B01240F351FF901EE0FFF1FE20FF31F46
:100F7000E051FE4F908196FD16C04F5F5F4F4C30A1
:100F8000510571F781110FC01092800022E020936B
:100F900081001092850010928400B19A80916F00B8
:100FA000826080936F00D801EC91F0E0CF01880F50
:100FB000991FE80FF91FE051FE4F80818064808304
:100FC0000D5F1F4FBFEFAB1ABB0A2016310609F0A9
:100FD0009BCF6091390170913A0180E292E00E94CA
:100FE000870060913B0170913C0183E292E00E9496
:100FF000870060913D0170913E0186E292E00E947F
:10100000870060913F017091400189E292E00E9467
:10101000870060914101709142018CE292E00E9450
:10102000870080914301811116C080E090E022C0CA
:10103000A0E2B2E0EC91F0E0CF01880F991FE80F39
:10104000F91FE051FE4F80818F7B808313962A1613
:101050003B0681F7BECF813019F488EE93E00AC0D9
:10106000823019F48CED95E005C0833009F083CD12
:1010700080ED97E00E946B027ECD0E94C5028B013D
:1010800084E6882E912CA12CB12C0E94C502601BF5
:10109000710B683E7340C8F3F1E08F1A9108A10804
:1010A000B10808511C4F81149104A104B10469F7DF
:1010B0000E94B50153CDF8940C94D308052E97FBEC
:1010C0001EF400940E94750857FD07D00E949008F6
:1010D00007FC03D04EF40C9475085095409530955C
:1010E00021953F4F4F4F5F4F089590958095709594
:1010F00061957F4F8F4F9F4F08950E94B208A59F23
:10110000900DB49F900DA49F800D911D1124089502
:10111000B7FF0C947D080E947D08821B930B0895F5
:10112000A1E21A2EAA1BBB1BFD010DC0AA1FBB1FEB
:10113000EE1FFF1FA217B307E407F50720F0A21B5D
:10114000B30BE40BF50B661F771F881F991F1A94CA
:1011500069F760957095809590959B01AC01BD01F4
:10116000CF010895A29FB001B39FC001A39F700D4E
:10117000811D1124911DB29F700D811D1124911D9F
:101180000895991B79E004C0991F961708F0961BE3
:10119000881F7A95C9F780950895EE0FFF1F059077
:0A11A000F491E02D0994F894FFCFBC
:1011AA00030506090A000000000A01BA01A501693F
:1011BA000189015E01696E636F6D6D696E67206DED
:0811CA00736700207C20000087
:00000001FF
