:100000000C9435000C945D000C945D000C945D0024
:100010000C945D000C945D000C945D000C945D00EC
:100020000C945D000C945D000C945D000C945D00DC
:100030000C945D000C945D000C945D000C945D00CC
:100040000C941B020C945D000C94E1010C94A6012D
:100050000C945D000C945D000C945D000C945D00AC
:100060000C945D000C945D00650211241FBECFEF5F
:10007000D8E0DEBFCDBF11E0A0E0B1E0E0EEF8E0F7
:1000800002C005900D92A431B107D9F721E0A4E197
:10009000B1E001C01D92AA3DB207E1F710E0C5E34F
:1000A000D0E004C02197FE010E946804C433D10748
:1000B000C9F70E94A5020C9443040C9400000F930E
:1000C0001F93CF93DF93FC01A685B7858D01005C5C
:1000D0001F4FE8018881998101968F739927AD019F
:1000E0004E5B5F4FEA012881398128173907D1F328
:1000F000E80128813981A20FB31F6C93A685B785CB
:10010000A05CBF4F11969C938E93A689B7892C91C2
:1001100081E090E0078C02C0880F991F0A94E2F7F3
:10012000822B8C9381E081A30488F589E02D808166
:100130008064808381E090E0DF91CF911F910F91E7
:100140000895FC0181A1882329F0A489B5898C91A7
:1001500086FFFBCF11A20895FC01A485B585FD01A2
:10016000E05CFF4F20813181329680819181281798
:10017000390779F080819181A80FB91F8C91208176
:1001800031812F5F3F4F2F7333273183208390E0DE
:1001900008958FEF9FEF0895DC011C96ED91FC917F
:1001A0001D97DF01A05CBF4F2D913C9111971296D6
:1001B0008D919C9111972817390739F08D919C9159
:1001C000E80FF91F808190E008958FEF9FEF089569
:1001D000FC0124853585F901E05CFF4F8081918128
:1001E000329620813181821B930B8F73992708955A
:1001F0008DEA91E00C94E8000895CF92DF92EF929F
:10020000FF920F931F93CF93DF936C01EB017B0160
:10021000E40EF51E00E010E0CE15DF0561F06991F7
:10022000D601ED91FC910190F081E02DC601099578
:10023000080F191FF1CFC801DF91CF911F910F91C6
:10024000FF90EF90DF90CF9008953FB7F8948091A2
:10025000190190911A01A0911B01B0911C0126B5C2
:10026000A89B05C02F3F19F00196A11DB11D3FBFEE
:10027000BA2FA92F982F8827820F911DA11DB11D7C
:10028000BC01CD0142E0660F771F881F991F4A9578
:10029000D1F708958F929F92AF92BF92EF92FF9203
:1002A0000F931F93CF93DF93CDB7DEB7A1970FB610
:1002B000F894DEBF0FBECDBF162F042F19A2423017
:1002C00008F40AE07E0121E2E20EF11C802E912C5E
:1002D000A12CB12C612FA50194010E944604029F1C
:1002E0001019112481E0E81AF1081A3014F4105D95
:1002F00001C0195CF7011083122F732FCA01232B41
:10030000242B252B39F7E114F10469F0019000202A
:10031000E9F73197AF014E195F09B7018DEA91E016
:100320000E94FD0002C080E090E0A1960FB6F89414
:10033000DEBF0FBECDBFDF91CF911F910F91FF9018
:10034000EF90BF90AF909F908F9008951F920F9263
:100350000FB60F9211242F933F938F939F93EF9398
:10036000FF93209165013091660180916701909122
:1003700068012817390731F48091C1008F7D80937F
:10038000C10014C0E0916701F0916801EB5DFE4F80
:100390002081809167019091680101968F73992760
:1003A00090936801809367012093C600FF91EF91BD
:1003B0009F918F913F912F910F900FBE0F901F90A3
:1003C00018951F920F920FB60F9211242F934F93EF
:1003D0005F938F939F93EF93FF938091C00082FD73
:1003E0001CC02091C6008091A9019091AA01409162
:1003F000AB015091AC0101968F73992748175907AB
:1004000071F0E091A901F091AA01E759FE4F208314
:100410009093AA018093A90102C08091C600FF9128
:10042000EF919F918F915F914F912F910F900FBE00
:100430000F901F9018951F920F920FB60F921124D4
:100440002F933F938F939F93AF93BF938091150109
:1004500090911601A0911701B091180130911401EB
:1004600023E0230F2D3720F40196A11DB11D05C0F7
:1004700026E8230F0296A11DB11D2093140180933D
:10048000150190931601A0931701B0931801809164
:10049000190190911A01A0911B01B0911C010196C4
:1004A000A11DB11D8093190190931A01A0931B0106
:1004B000B0931C01BF91AF919F918F913F912F916C
:1004C0000F900FBE0F901F901895EDEAF1E0138288
:1004D000128288EE93E0A0E0B0E084839583A68347
:1004E000B78384E091E09183808389E691E09587EA
:1004F000848785E291E09787868785EC90E0918BF1
:10050000808B84EC90E0938B828B80EC90E0958BD9
:10051000848B81EC90E0978B868B82EC90E0918FBE
:10052000808F86EC90E0938F828F84E0848F83E0CD
:10053000858F87E0868F85E0878F81E080A3EFEC51
:10054000F1E085E5808311820895789484B5826016
:1005500084BD84B5816084BD85B5826085BD85B567
:10056000816085BD80916E00816080936E001092E5
:100570008100809181008260809381008091810060
:1005800081608093810080918000816080938000F1
:100590008091B10084608093B1008091B00081604F
:1005A0008093B00080917A00846080937A0080917B
:1005B0007A00826080937A0080917A0081608093D3
:1005C0007A0080917A00806880937A001092C1004E
:1005D000E091C101F091C20181E090E09C010090A6
:1005E000CD0102C0220F331F0A94E2F72083E0916D
:1005F000BD01F091BE011082E091BF01F091C001F8
:100600002FEC20831092CE01E091C301F091C40140
:1006100040819C010090C90102C0220F331F0A943F
:10062000E2F7242B2083E091C301F091C4014081C3
:100630009C010090CA0102C0220F331F0A94E2F706
:10064000242B2083E091C301F091C40140819C01DF
:100650000090CB0102C0220F331F0A94E2F7242B33
:100660002083E091C301F091C40120810090CC016E
:1006700002C0880F991F0A94E2F780958223808335
:1006800002E010E093E0E92EF12CCC24C394D12CAD
:100690008DEA91E00E94E800892B09F4D6C08DEA2A
:1006A00091E00E94E800181619060CF0CEC08DEA01
:1006B00091E00E94AC00209123013091240121306F
:1006C0003105A1F01CF4232B49F076C0223031050E
:1006D000A1F02330310509F442C06EC0853509F020
:1006E0006BC0D0922401C092230166C08093D001D8
:1006F00010932401009323015FC04091D001042E88
:10070000000C550B415051092091210130912201DB
:100710002417350794F4F901E153FE4F8283409189
:100720001F0150912001BA01680F711D87FD7A9554
:100730007093200160931F010BC04217530741F4CF
:10074000F901E153FE4F8283F0922401E0922301EC
:100750002F5F3F4F30932201209321012DC0209124
:10076000D001022E000C330B409121015091220147
:100770002417350709F093CF10922201109221011E
:10078000109224011092230110921E0110921D015B
:100790008093D901082E000C990B20911F013091F4
:1007A00020011092200110921F018217930709F077
:1007B00076CFC1EDD1E017C080911D0190911E014F
:1007C0009C012F5F3F4F30931E0120931D014497E2
:1007D0000CF465CF109224011092230110921E0197
:1007E00010921D015CCF8990082C000C9908AA0872
:1007F000BB08B7FE0EC06DE28DEA91E00E945F007B
:1008000066277727CB01681979098A099B094AE08D
:1008100003C04AE0C501B4010E944A0143E050E030
:1008200060E171E08DEA91E00E94FD0071E0C93D58
:10083000D707C9F66DE08DEA91E00E945F006AE09B
:100840008DEA91E00E945F002ACF0E942501EB0112
:1008500084E1882E912CA12CB12C0E9425016C1BC7
:100860007D0B683E7340C8F361E0861A9108A108C9
:10087000B108C851DC4F81149104A104B10469F797
:100880000E94F80005CFF8940C946E04A1E21A2E91
:10089000AA1BBB1BFD010DC0AA1FBB1FEE1FFF1F24
:1008A000A217B307E407F50720F0A21BB30BE40B74
:1008B000F50B661F771F881F991F1A9469F76095BB
:1008C0007095809590959B01AC01BD01CF01089575
:1008D000EE0FFF1F0590F491E02D0994F894FFCFDF
:1008E000000000005F00FD00E800AC00CC00A100AB
:0408F000207C200048
:00000001FF
